{"abi":[{"type":"function","name":"getNext","inputs":[{"name":"node","type":"bytes32","internalType":"bytes32"}],"outputs":[{"name":"mask","type":"bytes8","internalType":"bytes8"}],"stateMutability":"view"}],"bytecode":{"object":"0x60b46037600b82828239805160001a607314602a57634e487b7160e01b600052600060045260246000fd5b30600052607381538281f3fe730000000000000000000000000000000000000000301460806040526004361060335760003560e01c806394dfe33f146038575b600080fd5b604960433660046066565b50600090565b6040516001600160c01b0319909116815260200160405180910390f35b600060208284031215607757600080fd5b503591905056fea2646970667358221220f5a3c275de3f1a1622db2aabbc1c6c4ca0a46cb1cf3ca69e3f1f0ee37ec8071864736f6c634300081a0033","linkReferences":{}},"methodIdentifiers":{"getNext(bytes32)":"94dfe33f"},"id":23}